{
  "_format": "hh-sol-artifact-1",
  "contractName": "SupplyChain",
  "sourceName": "contracts/SupplyChain.sol",
  "abi": [
    {
      "anonymous": false,
      "inputs": [
        {
          "indexed": false,
          "internalType": "string",
          "name": "batchCode",
          "type": "string"
        },
        {
          "indexed": false,
          "internalType": "string",
          "name": "cropName",
          "type": "string"
        },
        {
          "indexed": false,
          "internalType": "uint256",
          "name": "listPrice",
          "type": "uint256"
        },
        {
          "indexed": false,
          "internalType": "address",
          "name": "farmer",
          "type": "address"
        }
      ],
      "name": "BatchCreated",
      "type": "event"
    },
    {
      "anonymous": false,
      "inputs": [
        {
          "indexed": false,
          "internalType": "string",
          "name": "batchCode",
          "type": "string"
        },
        {
          "indexed": false,
          "internalType": "uint256",
          "name": "newPrice",
          "type": "uint256"
        },
        {
          "indexed": false,
          "internalType": "address",
          "name": "by",
          "type": "address"
        }
      ],
      "name": "PriceOffered",
      "type": "event"
    },
    {
      "anonymous": false,
      "inputs": [
        {
          "indexed": false,
          "internalType": "string",
          "name": "batchCode",
          "type": "string"
        },
        {
          "indexed": false,
          "internalType": "address",
          "name": "buyer",
          "type": "address"
        },
        {
          "indexed": false,
          "internalType": "uint256",
          "name": "price",
          "type": "uint256"
        }
      ],
      "name": "Purchased",
      "type": "event"
    },
    {
      "anonymous": false,
      "inputs": [
        {
          "indexed": false,
          "internalType": "string",
          "name": "batchCode",
          "type": "string"
        },
        {
          "indexed": false,
          "internalType": "enum SupplyChain.CropStatus",
          "name": "newStatus",
          "type": "uint8"
        }
      ],
      "name": "StatusUpdated",
      "type": "event"
    },
    {
      "inputs": [
        {
          "internalType": "string",
          "name": "",
          "type": "string"
        }
      ],
      "name": "batches",
      "outputs": [
        {
          "internalType": "string",
          "name": "cropName",
          "type": "string"
        },
        {
          "internalType": "string",
          "name": "qrCode",
          "type": "string"
        },
        {
          "internalType": "uint256",
          "name": "listPrice",
          "type": "uint256"
        },
        {
          "internalType": "enum SupplyChain.CropStatus",
          "name": "status",
          "type": "uint8"
        },
        {
          "internalType": "address",
          "name": "currentOwner",
          "type": "address"
        },
        {
          "internalType": "bool",
          "name": "exists",
          "type": "bool"
        }
      ],
      "stateMutability": "view",
      "type": "function"
    },
    {
      "inputs": [
        {
          "internalType": "string",
          "name": "_batchCode",
          "type": "string"
        }
      ],
      "name": "buy",
      "outputs": [],
      "stateMutability": "payable",
      "type": "function"
    },
    {
      "inputs": [
        {
          "internalType": "string",
          "name": "_batchCode",
          "type": "string"
        },
        {
          "internalType": "string",
          "name": "_cropName",
          "type": "string"
        },
        {
          "internalType": "string",
          "name": "_qrCode",
          "type": "string"
        },
        {
          "internalType": "uint256",
          "name": "_listPrice",
          "type": "uint256"
        }
      ],
      "name": "createBatch",
      "outputs": [],
      "stateMutability": "nonpayable",
      "type": "function"
    },
    {
      "inputs": [
        {
          "internalType": "string",
          "name": "_batchCode",
          "type": "string"
        }
      ],
      "name": "getBatch",
      "outputs": [
        {
          "internalType": "string",
          "name": "",
          "type": "string"
        },
        {
          "internalType": "string",
          "name": "",
          "type": "string"
        },
        {
          "internalType": "uint256",
          "name": "",
          "type": "uint256"
        },
        {
          "internalType": "enum SupplyChain.CropStatus",
          "name": "",
          "type": "uint8"
        },
        {
          "internalType": "address",
          "name": "",
          "type": "address"
        }
      ],
      "stateMutability": "view",
      "type": "function"
    },
    {
      "inputs": [
        {
          "internalType": "string",
          "name": "_batchCode",
          "type": "string"
        },
        {
          "internalType": "uint256",
          "name": "_newPrice",
          "type": "uint256"
        }
      ],
      "name": "offerPrice",
      "outputs": [],
      "stateMutability": "nonpayable",
      "type": "function"
    },
    {
      "inputs": [
        {
          "internalType": "string",
          "name": "_batchCode",
          "type": "string"
        },
        {
          "internalType": "enum SupplyChain.CropStatus",
          "name": "_status",
          "type": "uint8"
        }
      ],
      "name": "updateStatus",
      "outputs": [],
      "stateMutability": "nonpayable",
      "type": "function"
    }
  ],
  "bytecode": "0x608060405234801561001057600080fd5b506116f7806100206000396000f3fe6080604052600436106100555760003560e01c80631d4c1e581461005a578063454f913314610083578063492cc769146100ac57806353616982146100c85780637ef1446a146100f1578063f9ca427414610133575b600080fd5b34801561006657600080fd5b50610081600480360381019061007c9190610ccf565b610174565b005b34801561008f57600080fd5b506100aa60048036038101906100a59190610d2b565b610221565b005b6100c660048036038101906100c19190610de6565b61041a565b005b3480156100d457600080fd5b506100ef60048036038101906100ea9190610e54565b6105ed565b005b3480156100fd57600080fd5b5061011860048036038101906101139190610de6565b610724565b60405161012a96959493929190611011565b60405180910390f35b34801561013f57600080fd5b5061015a60048036038101906101559190610de6565b6108c0565b60405161016b959493929190611080565b60405180910390f35b600082604051610184919061111d565b908152602001604051809103902060030160159054906101000a900460ff166101e2576040517f08c379a00000000000000000000000000000000000000000000000000000000081526004016101d990611180565b60405180910390fd5b7f92a2a5c79fa66578ea5a4222a78c304bd21b254a0382f3fe00f102b2b1f5567d828233604051610215939291906111a0565b60405180910390a15050565b600084604051610231919061111d565b908152602001604051809103902060030160159054906101000a900460ff1615610290576040517f08c379a00000000000000000000000000000000000000000000000000000000081526004016102879061122a565b60405180910390fd5b6040518060c00160405280848152602001838152602001828152602001600060048111156102c1576102c0610f3e565b5b81526020013373ffffffffffffffffffffffffffffffffffffffff168152602001600115158152506000856040516102f9919061111d565b9081526020016040518091039020600082015181600001908161031c9190611456565b5060208201518160010190816103329190611456565b506040820151816002015560608201518160030160006101000a81548160ff0219169083600481111561036857610367610f3e565b5b021790555060808201518160030160016101000a81548173ffffffffffffffffffffffffffffffffffffffff021916908373ffffffffffffffffffffffffffffffffffffffff16021790555060a08201518160030160156101000a81548160ff0219169083151502179055509050507f36fddeca3b99d4655e76ff3eb699cbff3f16f4a5123824cdaa040880ab7e78ef8484833360405161040c9493929190611528565b60405180910390a150505050565b6000808260405161042b919061111d565b908152602001604051809103902090508060030160159054906101000a900460ff1661048c576040517f08c379a000000000000000000000000000000000000000000000000000000000815260040161048390611180565b60405180910390fd5b80600201543410156104d3576040517f08c379a00000000000000000000000000000000000000000000000000000000081526004016104ca906115c7565b60405180910390fd5b8060030160019054906101000a900473ffffffffffffffffffffffffffffffffffffffff1673ffffffffffffffffffffffffffffffffffffffff166108fc349081150290604051600060405180830381858888f1935050505015801561053d573d6000803e3d6000fd5b50338160030160016101000a81548173ffffffffffffffffffffffffffffffffffffffff021916908373ffffffffffffffffffffffffffffffffffffffff16021790555060048160030160006101000a81548160ff021916908360048111156105a9576105a8610f3e565b5b02179055507f93cd282da0556cd5130e493c0eb09b92a1a31cd94b2815933ee7c093f0cae83b8233346040516105e1939291906115e7565b60405180910390a15050565b813373ffffffffffffffffffffffffffffffffffffffff16600082604051610615919061111d565b908152602001604051809103902060030160019054906101000a900473ffffffffffffffffffffffffffffffffffffffff1673ffffffffffffffffffffffffffffffffffffffff161461069d576040517f08c379a000000000000000000000000000000000000000000000000000000000815260040161069490611671565b60405180910390fd5b816000846040516106ae919061111d565b908152602001604051809103902060030160006101000a81548160ff021916908360048111156106e1576106e0610f3e565b5b02179055507f4e407d4f938199e743ff3f9c87db0c2b408db2c74b3b83b01299015302ef05328383604051610717929190611691565b60405180910390a1505050565b60008180516020810182018051848252602083016020850120818352809550505050505060009150905080600001805461075d90611279565b80601f016020809104026020016040519081016040528092919081815260200182805461078990611279565b80156107d65780601f106107ab576101008083540402835291602001916107d6565b820191906000526020600020905b8154815290600101906020018083116107b957829003601f168201915b5050505050908060010180546107eb90611279565b80601f016020809104026020016040519081016040528092919081815260200182805461081790611279565b80156108645780601f1061083957610100808354040283529160200191610864565b820191906000526020600020905b81548152906001019060200180831161084757829003601f168201915b5050505050908060020154908060030160009054906101000a900460ff16908060030160019054906101000a900473ffffffffffffffffffffffffffffffffffffffff16908060030160159054906101000a900460ff16905086565b6060806000806000806000876040516108d9919061111d565b90815260200160405180910390206040518060c001604052908160008201805461090290611279565b80601f016020809104026020016040519081016040528092919081815260200182805461092e90611279565b801561097b5780601f106109505761010080835404028352916020019161097b565b820191906000526020600020905b81548152906001019060200180831161095e57829003601f168201915b5050505050815260200160018201805461099490611279565b80601f01602080910402602001604051908101604052809291908181526020018280546109c090611279565b8015610a0d5780601f106109e257610100808354040283529160200191610a0d565b820191906000526020600020905b8154815290600101906020018083116109f057829003601f168201915b50505050508152602001600282015481526020016003820160009054906101000a900460ff166004811115610a4557610a44610f3e565b5b6004811115610a5757610a56610f3e565b5b81526020016003820160019054906101000a900473ffffffffffffffffffffffffffffffffffffffff1673ffffffffffffffffffffffffffffffffffffffff1673ffffffffffffffffffffffffffffffffffffffff1681526020016003820160159054906101000a900460ff16151515158152505090508060a00151610b12576040517f08c379a0000000000000000000000000000000000000000000000000000000008152600401610b0990611180565b60405180910390fd5b80600001518160200151826040015183606001518460800151955095509550955095505091939590929450565b6000604051905090565b600080fd5b600080fd5b600080fd5b600080fd5b6000601f19601f8301169050919050565b7f4e487b7100000000000000000000000000000000000000000000000000000000600052604160045260246000fd5b610ba682610b5d565b810181811067ffffffffffffffff82111715610bc557610bc4610b6e565b5b80604052505050565b6000610bd8610b3f565b9050610be48282610b9d565b919050565b600067ffffffffffffffff821115610c0457610c03610b6e565b5b610c0d82610b5d565b9050602081019050919050565b82818337600083830152505050565b6000610c3c610c3784610be9565b610bce565b905082815260208101848484011115610c5857610c57610b58565b5b610c63848285610c1a565b509392505050565b600082601f830112610c8057610c7f610b53565b5b8135610c90848260208601610c29565b91505092915050565b6000819050919050565b610cac81610c99565b8114610cb757600080fd5b50565b600081359050610cc981610ca3565b92915050565b60008060408385031215610ce657610ce5610b49565b5b600083013567ffffffffffffffff811115610d0457610d03610b4e565b5b610d1085828601610c6b565b9250506020610d2185828601610cba565b9150509250929050565b60008060008060808587031215610d4557610d44610b49565b5b600085013567ffffffffffffffff811115610d6357610d62610b4e565b5b610d6f87828801610c6b565b945050602085013567ffffffffffffffff811115610d9057610d8f610b4e565b5b610d9c87828801610c6b565b935050604085013567ffffffffffffffff811115610dbd57610dbc610b4e565b5b610dc987828801610c6b565b9250506060610dda87828801610cba565b91505092959194509250565b600060208284031215610dfc57610dfb610b49565b5b600082013567ffffffffffffffff811115610e1a57610e19610b4e565b5b610e2684828501610c6b565b91505092915050565b60058110610e3c57600080fd5b50565b600081359050610e4e81610e2f565b92915050565b60008060408385031215610e6b57610e6a610b49565b5b600083013567ffffffffffffffff811115610e8957610e88610b4e565b5b610e9585828601610c6b565b9250506020610ea685828601610e3f565b9150509250929050565b600081519050919050565b600082825260208201905092915050565b60005b83811015610eea578082015181840152602081019050610ecf565b60008484015250505050565b6000610f0182610eb0565b610f0b8185610ebb565b9350610f1b818560208601610ecc565b610f2481610b5d565b840191505092915050565b610f3881610c99565b82525050565b7f4e487b7100000000000000000000000000000000000000000000000000000000600052602160045260246000fd5b60058110610f7e57610f7d610f3e565b5b50565b6000819050610f8f82610f6d565b919050565b6000610f9f82610f81565b9050919050565b610faf81610f94565b82525050565b600073ffffffffffffffffffffffffffffffffffffffff82169050919050565b6000610fe082610fb5565b9050919050565b610ff081610fd5565b82525050565b60008115159050919050565b61100b81610ff6565b82525050565b600060c082019050818103600083015261102b8189610ef6565b9050818103602083015261103f8188610ef6565b905061104e6040830187610f2f565b61105b6060830186610fa6565b6110686080830185610fe7565b61107560a0830184611002565b979650505050505050565b600060a082019050818103600083015261109a8188610ef6565b905081810360208301526110ae8187610ef6565b90506110bd6040830186610f2f565b6110ca6060830185610fa6565b6110d76080830184610fe7565b9695505050505050565b600081905092915050565b60006110f782610eb0565b61110181856110e1565b9350611111818560208601610ecc565b80840191505092915050565b600061112982846110ec565b915081905092915050565b7f4261746368206e6f7420666f756e640000000000000000000000000000000000600082015250565b600061116a600f83610ebb565b915061117582611134565b602082019050919050565b600060208201905081810360008301526111998161115d565b9050919050565b600060608201905081810360008301526111ba8186610ef6565b90506111c96020830185610f2f565b6111d66040830184610fe7565b949350505050565b7f4261746368206578697374730000000000000000000000000000000000000000600082015250565b6000611214600c83610ebb565b915061121f826111de565b602082019050919050565b6000602082019050818103600083015261124381611207565b9050919050565b7f4e487b7100000000000000000000000000000000000000000000000000000000600052602260045260246000fd5b6000600282049050600182168061129157607f821691505b6020821081036112a4576112a361124a565b5b50919050565b60008190508160005260206000209050919050565b60006020601f8301049050919050565b600082821b905092915050565b60006008830261130c7fffffffffffffffffffffffffffffffffffffffffffffffffffffffffffffffff826112cf565b61131686836112cf565b95508019841693508086168417925050509392505050565b6000819050919050565b600061135361134e61134984610c99565b61132e565b610c99565b9050919050565b6000819050919050565b61136d83611338565b6113816113798261135a565b8484546112dc565b825550505050565b600090565b611396611389565b6113a1818484611364565b505050565b5b818110156113c5576113ba60008261138e565b6001810190506113a7565b5050565b601f82111561140a576113db816112aa565b6113e4846112bf565b810160208510156113f3578190505b6114076113ff856112bf565b8301826113a6565b50505b505050565b600082821c905092915050565b600061142d6000198460080261140f565b1980831691505092915050565b6000611446838361141c565b9150826002028217905092915050565b61145f82610eb0565b67ffffffffffffffff81111561147857611477610b6e565b5b6114828254611279565b61148d8282856113c9565b600060209050601f8311600181146114c057600084156114ae578287015190505b6114b8858261143a565b865550611520565b601f1984166114ce866112aa565b60005b828110156114f6578489015182556001820191506020850194506020810190506114d1565b86831015611513578489015161150f601f89168261141c565b8355505b6001600288020188555050505b505050505050565b600060808201905081810360008301526115428187610ef6565b905081810360208301526115568186610ef6565b90506115656040830185610f2f565b6115726060830184610fe7565b95945050505050565b7f496e73756666696369656e74207061796d656e74000000000000000000000000600082015250565b60006115b1601483610ebb565b91506115bc8261157b565b602082019050919050565b600060208201905081810360008301526115e0816115a4565b9050919050565b600060608201905081810360008301526116018186610ef6565b90506116106020830185610fe7565b61161d6040830184610f2f565b949350505050565b7f4e6f74206f776e65720000000000000000000000000000000000000000000000600082015250565b600061165b600983610ebb565b915061166682611625565b602082019050919050565b6000602082019050818103600083015261168a8161164e565b9050919050565b600060408201905081810360008301526116ab8185610ef6565b90506116ba6020830184610fa6565b939250505056fea2646970667358221220827e654d641c34b0563d55e8cde28c4bb126aaadf119c73f5b6b859825e1f49964736f6c63430008140033",
  "linkReferences": {},
  "deployedLinkReferences": {}
}